{
  "_format": "hh-sol-artifact-1",
  "contractName": "ProductPackage",
  "sourceName": "contracts/ProductPackage.sol",
  "abi": [
    {
      "inputs": [
        {
          "internalType": "string",
          "name": "_cid",
          "type": "string"
        },
        {
          "internalType": "bytes32",
          "name": "_packageId",
          "type": "bytes32"
        }
      ],
      "name": "addPackageData",
      "outputs": [],
      "stateMutability": "nonpayable",
      "type": "function"
    },
    {
      "inputs": [
        {
          "internalType": "bytes32",
          "name": "_packageId",
          "type": "bytes32"
        }
      ],
      "name": "getCIDsByPackageId",
      "outputs": [
        {
          "internalType": "string[]",
          "name": "",
          "type": "string[]"
        }
      ],
      "stateMutability": "view",
      "type": "function"
    }
  ],
  "bytecode": "0x608060405234801561001057600080fd5b50610855806100206000396000f3fe608060405234801561001057600080fd5b50600436106100365760003560e01c80635bb9fab01461003b57806398bb943a14610057575b600080fd5b6100556004803603810190610050919061034b565b610087565b005b610071600480360381019061006c91906103a7565b6100d0565b60405161007e9190610515565b60405180910390f35b600080828152602001908152602001600020829080600181540180825580915050600190039060005260206000200160009091909190915090816100cb919061074d565b505050565b6060600080838152602001908152602001600020805480602002602001604051908101604052809291908181526020016000905b828210156101b057838290600052602060002001805461012390610566565b80601f016020809104026020016040519081016040528092919081815260200182805461014f90610566565b801561019c5780601f106101715761010080835404028352916020019161019c565b820191906000526020600020905b81548152906001019060200180831161017f57829003601f168201915b505050505081526020019060010190610104565b505050509050919050565b6000604051905090565b600080fd5b600080fd5b600080fd5b600080fd5b6000601f19601f8301169050919050565b7f4e487b7100000000000000000000000000000000000000000000000000000000600052604160045260246000fd5b610222826101d9565b810181811067ffffffffffffffff82111715610241576102406101ea565b5b80604052505050565b60006102546101bb565b90506102608282610219565b919050565b600067ffffffffffffffff8211156102805761027f6101ea565b5b610289826101d9565b9050602081019050919050565b82818337600083830152505050565b60006102b86102b384610265565b61024a565b9050828152602081018484840111156102d4576102d36101d4565b5b6102df848285610296565b509392505050565b600082601f8301126102fc576102fb6101cf565b5b813561030c8482602086016102a5565b91505092915050565b6000819050919050565b61032881610315565b811461033357600080fd5b50565b6000813590506103458161031f565b92915050565b60008060408385031215610362576103616101c5565b5b600083013567ffffffffffffffff8111156103805761037f6101ca565b5b61038c858286016102e7565b925050602061039d85828601610336565b9150509250929050565b6000602082840312156103bd576103bc6101c5565b5b60006103cb84828501610336565b91505092915050565b600081519050919050565b600082825260208201905092915050565b6000819050602082019050919050565b600081519050919050565b600082825260208201905092915050565b60005b8381101561043a57808201518184015260208101905061041f565b60008484015250505050565b600061045182610400565b61045b818561040b565b935061046b81856020860161041c565b610474816101d9565b840191505092915050565b600061048b8383610446565b905092915050565b6000602082019050919050565b60006104ab826103d4565b6104b581856103df565b9350836020820285016104c7856103f0565b8060005b8581101561050357848403895281516104e4858261047f565b94506104ef83610493565b925060208a019950506001810190506104cb565b50829750879550505050505092915050565b6000602082019050818103600083015261052f81846104a0565b905092915050565b7f4e487b7100000000000000000000000000000000000000000000000000000000600052602260045260246000fd5b6000600282049050600182168061057e57607f821691505b60208210810361059157610590610537565b5b50919050565b60008190508160005260206000209050919050565b60006020601f8301049050919050565b600082821b905092915050565b6000600883026105f97fffffffffffffffffffffffffffffffffffffffffffffffffffffffffffffffff826105bc565b61060386836105bc565b95508019841693508086168417925050509392505050565b6000819050919050565b6000819050919050565b600061064a6106456106408461061b565b610625565b61061b565b9050919050565b6000819050919050565b6106648361062f565b61067861067082610651565b8484546105c9565b825550505050565b600090565b61068d610680565b61069881848461065b565b505050565b5b818110156106bc576106b1600082610685565b60018101905061069e565b5050565b601f821115610701576106d281610597565b6106db846105ac565b810160208510156106ea578190505b6106fe6106f6856105ac565b83018261069d565b50505b505050565b600082821c905092915050565b600061072460001984600802610706565b1980831691505092915050565b600061073d8383610713565b9150826002028217905092915050565b61075682610400565b67ffffffffffffffff81111561076f5761076e6101ea565b5b6107798254610566565b6107848282856106c0565b600060209050601f8311600181146107b757600084156107a5578287015190505b6107af8582610731565b865550610817565b601f1984166107c586610597565b60005b828110156107ed578489015182556001820191506020850194506020810190506107c8565b8683101561080a5784890151610806601f891682610713565b8355505b6001600288020188555050505b50505050505056fea2646970667358221220c2f2180bc2257faf434fa7b66256ef3a7534832e5979a168fcd563b0740d496464736f6c63430008180033",
  "linkReferences": {},
  "deployedLinkReferences": {}
}