{
  "contractName": "ProductPackage",
  "abi": [
    {
      "anonymous": false,
      "inputs": [
        {
          "indexed": true,
          "internalType": "bytes32",
          "name": "productId",
          "type": "bytes32"
        },
        {
          "indexed": false,
          "internalType": "bytes32",
          "name": "name",
          "type": "bytes32"
        },
        {
          "indexed": false,
          "internalType": "uint256",
          "name": "price",
          "type": "uint256"
        },
        {
          "indexed": false,
          "internalType": "bytes32",
          "name": "description",
          "type": "bytes32"
        }
      ],
      "name": "ProductCreated",
      "type": "event"
    },
    {
      "inputs": [
        {
          "internalType": "string",
          "name": "",
          "type": "string"
        }
      ],
      "name": "products",
      "outputs": [
        {
          "internalType": "bytes32",
          "name": "productId",
          "type": "bytes32"
        },
        {
          "internalType": "bytes32",
          "name": "name",
          "type": "bytes32"
        },
        {
          "internalType": "uint256",
          "name": "price",
          "type": "uint256"
        },
        {
          "internalType": "bytes32",
          "name": "description",
          "type": "bytes32"
        }
      ],
      "stateMutability": "view",
      "type": "function",
      "constant": true
    },
    {
      "inputs": [
        {
          "internalType": "string",
          "name": "productId",
          "type": "string"
        },
        {
          "internalType": "bytes32",
          "name": "name",
          "type": "bytes32"
        },
        {
          "internalType": "uint256",
          "name": "price",
          "type": "uint256"
        },
        {
          "internalType": "bytes32",
          "name": "description",
          "type": "bytes32"
        }
      ],
      "name": "createProduct",
      "outputs": [],
      "stateMutability": "nonpayable",
      "type": "function"
    }
  ],
  "bytecode": "0x608060405234801561001057600080fd5b50610734806100206000396000f3fe608060405234801561001057600080fd5b50600436106100365760003560e01c80630186a4231461003b57806364d93f2a1461006e575b600080fd5b6100556004803603810190610050919061037a565b61008a565b60405161006594939291906103f5565b60405180910390f35b61008860048036038101906100839190610492565b6100d0565b005b6000818051602081018201805184825260208301602085012081835280955050505050506000915090508060000154908060010154908060020154908060030154905084565b6000801b6000856040516100e4919061058f565b90815260200160405180910390206000015414610136576040517f08c379a000000000000000000000000000000000000000000000000000000000815260040161012d90610603565b60405180910390fd5b6000604051806080016040528086604051602001610154919061058f565b60405160208183030381529060405261016c90610660565b815260200185815260200184815260200183815250905080600086604051610194919061058f565b90815260200160405180910390206000820151816000015560208201518160010155604082015181600201556060820151816003015590505080600001517fff9c8101b4fc568d8517af775e0517b63cf96272121824747af028c791262209826020015183604001518460600151604051610211939291906106c7565b60405180910390a25050505050565b6000604051905090565b600080fd5b600080fd5b600080fd5b600080fd5b6000601f19601f8301169050919050565b7f4e487b7100000000000000000000000000000000000000000000000000000000600052604160045260246000fd5b6102878261023e565b810181811067ffffffffffffffff821117156102a6576102a561024f565b5b80604052505050565b60006102b9610220565b90506102c5828261027e565b919050565b600067ffffffffffffffff8211156102e5576102e461024f565b5b6102ee8261023e565b9050602081019050919050565b82818337600083830152505050565b600061031d610318846102ca565b6102af565b90508281526020810184848401111561033957610338610239565b5b6103448482856102fb565b509392505050565b600082601f83011261036157610360610234565b5b813561037184826020860161030a565b91505092915050565b6000602082840312156103905761038f61022a565b5b600082013567ffffffffffffffff8111156103ae576103ad61022f565b5b6103ba8482850161034c565b91505092915050565b6000819050919050565b6103d6816103c3565b82525050565b6000819050919050565b6103ef816103dc565b82525050565b600060808201905061040a60008301876103cd565b61041760208301866103cd565b61042460408301856103e6565b61043160608301846103cd565b95945050505050565b610443816103c3565b811461044e57600080fd5b50565b6000813590506104608161043a565b92915050565b61046f816103dc565b811461047a57600080fd5b50565b60008135905061048c81610466565b92915050565b600080600080608085870312156104ac576104ab61022a565b5b600085013567ffffffffffffffff8111156104ca576104c961022f565b5b6104d68782880161034c565b94505060206104e787828801610451565b93505060406104f88782880161047d565b925050606061050987828801610451565b91505092959194509250565b600081519050919050565b600081905092915050565b60005b8381101561054957808201518184015260208101905061052e565b83811115610558576000848401525b50505050565b600061056982610515565b6105738185610520565b935061058381856020860161052b565b80840191505092915050565b600061059b828461055e565b915081905092915050565b600082825260208201905092915050565b7f50726f6475637420616c72656164792065786973747300000000000000000000600082015250565b60006105ed6016836105a6565b91506105f8826105b7565b602082019050919050565b6000602082019050818103600083015261061c816105e0565b9050919050565b600081519050919050565b6000819050602082019050919050565b600061064a82516103c3565b80915050919050565b600082821b905092915050565b600061066b82610623565b826106758461062e565b90506106808161063e565b925060208210156106c0576106bb7fffffffffffffffffffffffffffffffffffffffffffffffffffffffffffffffff83602003600802610653565b831692505b5050919050565b60006060820190506106dc60008301866103cd565b6106e960208301856103e6565b6106f660408301846103cd565b94935050505056fea2646970667358221220bbc0e97ad41786a9233c502f62eed1a6014d868a6d842371a896fd3f16350d3064736f6c634300080d0033",
  "immutableReferences": {},
  "source": "// SPDX-License-Identifier: MIT\r\npragma solidity >=0.4.22 <0.9.0;\r\n\r\ncontract ProductPackage {\r\n\r\n    // Struct definition\r\n    struct TProduct {\r\n        bytes32 productId;\r\n        bytes32 name;\r\n        uint256 price;\r\n        bytes32 description;\r\n    }\r\n\r\n    event ProductCreated(bytes32 indexed productId, bytes32 name, uint256 price, bytes32 description);\r\n\r\n\r\n    // Mapping to store products\r\n    mapping(string => TProduct) public products;\r\n\r\n    // Function to create a new product\r\n    function createProduct(string memory productId, bytes32 name, uint256 price, bytes32 description) public {\r\n        require(products[productId].productId == bytes32(0), \"Product already exists\");\r\n\r\n        TProduct memory newProduct = TProduct({\r\n            productId: bytes32(abi.encodePacked(productId)),\r\n            name: name,\r\n            price: price,\r\n            description: description\r\n        });\r\n\r\n        products[productId] = newProduct;\r\n\r\n        emit ProductCreated(newProduct.productId, newProduct.name, newProduct.price, newProduct.description);\r\n    }\r\n}",
  "sourcePath": "C:\\Users\\dylan\\coding\\node\\supply-chain-tesis\\truffle\\contracts\\ProductPackage.sol",
  "compiler": {
    "name": "solc",
    "version": "0.8.13+commit.abaa5c0e.Emscripten.clang"
  },
  "schemaVersion": "3.4.16",
  "updatedAt": "2024-06-29T21:41:30.306Z",
  "networkType": "ethereum",
  "devdoc": {
    "kind": "dev",
    "methods": {},
    "version": 1
  },
  "userdoc": {
    "kind": "user",
    "methods": {},
    "version": 1
  }
}