{
  "contractName": "ProductPackage",
  "abi": [
    {
      "inputs": [
        {
          "internalType": "string",
          "name": "_cid",
          "type": "string"
        },
        {
          "internalType": "bytes32",
          "name": "_packageId",
          "type": "bytes32"
        }
      ],
      "name": "addPackageData",
      "outputs": [],
      "stateMutability": "nonpayable",
      "type": "function"
    },
    {
      "inputs": [
        {
          "internalType": "bytes32",
          "name": "_packageId",
          "type": "bytes32"
        }
      ],
      "name": "getCIDsByPackageId",
      "outputs": [
        {
          "internalType": "string[]",
          "name": "",
          "type": "string[]"
        }
      ],
      "stateMutability": "view",
      "type": "function"
    }
  ],
  "bytecode": "0x608060405234801561001057600080fd5b50610680806100206000396000f3fe608060405234801561001057600080fd5b50600436106100365760003560e01c80635bb9fab01461003b57806398bb943a14610057575b600080fd5b610055600480360381019061005091906103f5565b610087565b005b610071600480360381019061006c9190610451565b6100d7565b60405161007e91906105c8565b60405180910390f35b600080828152602001908152602001600020829080600181540180825580915050600190039060005260206000200160009091909190915090805190602001906100d29291906101c2565b505050565b6060600080838152602001908152602001600020805480602002602001604051908101604052809291908181526020016000905b828210156101b757838290600052602060002001805461012a90610619565b80601f016020809104026020016040519081016040528092919081815260200182805461015690610619565b80156101a35780601f10610178576101008083540402835291602001916101a3565b820191906000526020600020905b81548152906001019060200180831161018657829003601f168201915b50505050508152602001906001019061010b565b505050509050919050565b8280546101ce90610619565b90600052602060002090601f0160209004810192826101f05760008555610237565b82601f1061020957805160ff1916838001178555610237565b82800160010185558215610237579182015b8281111561023657825182559160200191906001019061021b565b5b5090506102449190610248565b5090565b5b80821115610261576000816000905550600101610249565b5090565b6000604051905090565b600080fd5b600080fd5b600080fd5b600080fd5b6000601f19601f8301169050919050565b7f4e487b7100000000000000000000000000000000000000000000000000000000600052604160045260246000fd5b6102cc82610283565b810181811067ffffffffffffffff821117156102eb576102ea610294565b5b80604052505050565b60006102fe610265565b905061030a82826102c3565b919050565b600067ffffffffffffffff82111561032a57610329610294565b5b61033382610283565b9050602081019050919050565b82818337600083830152505050565b600061036261035d8461030f565b6102f4565b90508281526020810184848401111561037e5761037d61027e565b5b610389848285610340565b509392505050565b600082601f8301126103a6576103a5610279565b5b81356103b684826020860161034f565b91505092915050565b6000819050919050565b6103d2816103bf565b81146103dd57600080fd5b50565b6000813590506103ef816103c9565b92915050565b6000806040838503121561040c5761040b61026f565b5b600083013567ffffffffffffffff81111561042a57610429610274565b5b61043685828601610391565b9250506020610447858286016103e0565b9150509250929050565b6000602082840312156104675761046661026f565b5b6000610475848285016103e0565b91505092915050565b600081519050919050565b600082825260208201905092915050565b6000819050602082019050919050565b600081519050919050565b600082825260208201905092915050565b60005b838110156104e45780820151818401526020810190506104c9565b838111156104f3576000848401525b50505050565b6000610504826104aa565b61050e81856104b5565b935061051e8185602086016104c6565b61052781610283565b840191505092915050565b600061053e83836104f9565b905092915050565b6000602082019050919050565b600061055e8261047e565b6105688185610489565b93508360208202850161057a8561049a565b8060005b858110156105b657848403895281516105978582610532565b94506105a283610546565b925060208a0199505060018101905061057e565b50829750879550505050505092915050565b600060208201905081810360008301526105e28184610553565b905092915050565b7f4e487b7100000000000000000000000000000000000000000000000000000000600052602260045260246000fd5b6000600282049050600182168061063157607f821691505b602082108103610644576106436105ea565b5b5091905056fea2646970667358221220f3e28c16f1f346469306e8f1df5042a23d51ccff57fed1c0a1aa04c20db03d8164736f6c634300080d0033",
  "immutableReferences": {},
  "source": "// SPDX-License-Identifier: MIT\r\npragma solidity >=0.4.22 <0.9.0;\r\n\r\ncontract ProductPackage {\r\n    mapping(bytes32 => string[]) private packageDataMap;\r\n\r\n    function addPackageData(string memory _cid, bytes32 _packageId) public {\r\n        packageDataMap[_packageId].push(_cid);\r\n    }\r\n\r\n    function getCIDsByPackageId(bytes32 _packageId) public view returns (string[] memory) {\r\n        return packageDataMap[_packageId];\r\n    }\r\n}",
  "sourcePath": "C:\\Users\\dylan\\coding\\node\\supply-chain-tesis\\truffle\\contracts\\ProductPackage.sol",
  "compiler": {
    "name": "solc",
    "version": "0.8.13+commit.abaa5c0e.Emscripten.clang"
  },
  "schemaVersion": "3.4.16",
  "updatedAt": "2024-07-09T04:40:32.966Z",
  "devdoc": {
    "kind": "dev",
    "methods": {},
    "version": 1
  },
  "userdoc": {
    "kind": "user",
    "methods": {},
    "version": 1
  }
}