{
  "contractName": "ProductPackage",
  "abi": [
    {
      "inputs": [
        {
          "internalType": "string",
          "name": "",
          "type": "string"
        }
      ],
      "name": "products",
      "outputs": [
        {
          "internalType": "bytes32",
          "name": "productId",
          "type": "bytes32"
        },
        {
          "internalType": "bytes32",
          "name": "name",
          "type": "bytes32"
        },
        {
          "internalType": "uint256",
          "name": "price",
          "type": "uint256"
        },
        {
          "internalType": "bytes32",
          "name": "description",
          "type": "bytes32"
        }
      ],
      "stateMutability": "view",
      "type": "function",
      "constant": true
    },
    {
      "inputs": [
        {
          "internalType": "string",
          "name": "productId",
          "type": "string"
        },
        {
          "internalType": "bytes32",
          "name": "name",
          "type": "bytes32"
        },
        {
          "internalType": "uint256",
          "name": "price",
          "type": "uint256"
        },
        {
          "internalType": "bytes32",
          "name": "description",
          "type": "bytes32"
        }
      ],
      "name": "createProduct",
      "outputs": [],
      "stateMutability": "nonpayable",
      "type": "function"
    }
  ],
  "bytecode": "0x608060405234801561001057600080fd5b506106b1806100206000396000f3fe608060405234801561001057600080fd5b50600436106100365760003560e01c80630186a4231461003b57806364d93f2a1461006e575b600080fd5b6100556004803603810190610050919061032e565b61008a565b60405161006594939291906103a9565b60405180910390f35b61008860048036038101906100839190610446565b6100d0565b005b6000818051602081018201805184825260208301602085012081835280955050505050506000915090508060000154908060010154908060020154908060030154905084565b6000801b6000856040516100e49190610543565b90815260200160405180910390206000015414610136576040517f08c379a000000000000000000000000000000000000000000000000000000000815260040161012d906105b7565b60405180910390fd5b60006040518060800160405280866040516020016101549190610543565b60405160208183030381529060405261016c90610614565b8152602001858152602001848152602001838152509050806000866040516101949190610543565b9081526020016040518091039020600082015181600001556020820151816001015560408201518160020155606082015181600301559050505050505050565b6000604051905090565b600080fd5b600080fd5b600080fd5b600080fd5b6000601f19601f8301169050919050565b7f4e487b7100000000000000000000000000000000000000000000000000000000600052604160045260246000fd5b61023b826101f2565b810181811067ffffffffffffffff8211171561025a57610259610203565b5b80604052505050565b600061026d6101d4565b90506102798282610232565b919050565b600067ffffffffffffffff82111561029957610298610203565b5b6102a2826101f2565b9050602081019050919050565b82818337600083830152505050565b60006102d16102cc8461027e565b610263565b9050828152602081018484840111156102ed576102ec6101ed565b5b6102f88482856102af565b509392505050565b600082601f830112610315576103146101e8565b5b81356103258482602086016102be565b91505092915050565b600060208284031215610344576103436101de565b5b600082013567ffffffffffffffff811115610362576103616101e3565b5b61036e84828501610300565b91505092915050565b6000819050919050565b61038a81610377565b82525050565b6000819050919050565b6103a381610390565b82525050565b60006080820190506103be6000830187610381565b6103cb6020830186610381565b6103d8604083018561039a565b6103e56060830184610381565b95945050505050565b6103f781610377565b811461040257600080fd5b50565b600081359050610414816103ee565b92915050565b61042381610390565b811461042e57600080fd5b50565b6000813590506104408161041a565b92915050565b600080600080608085870312156104605761045f6101de565b5b600085013567ffffffffffffffff81111561047e5761047d6101e3565b5b61048a87828801610300565b945050602061049b87828801610405565b93505060406104ac87828801610431565b92505060606104bd87828801610405565b91505092959194509250565b600081519050919050565b600081905092915050565b60005b838110156104fd5780820151818401526020810190506104e2565b8381111561050c576000848401525b50505050565b600061051d826104c9565b61052781856104d4565b93506105378185602086016104df565b80840191505092915050565b600061054f8284610512565b915081905092915050565b600082825260208201905092915050565b7f50726f6475637420616c72656164792065786973747300000000000000000000600082015250565b60006105a160168361055a565b91506105ac8261056b565b602082019050919050565b600060208201905081810360008301526105d081610594565b9050919050565b600081519050919050565b6000819050602082019050919050565b60006105fe8251610377565b80915050919050565b600082821b905092915050565b600061061f826105d7565b82610629846105e2565b9050610634816105f2565b925060208210156106745761066f7fffffffffffffffffffffffffffffffffffffffffffffffffffffffffffffffff83602003600802610607565b831692505b505091905056fea2646970667358221220bd92c6afe28d0a0f575a07d009e9d6b3b46bb789cc3bc6b42c692a99a0d7d31d64736f6c634300080d0033",
  "immutableReferences": {},
  "source": "// SPDX-License-Identifier: MIT\r\npragma solidity >=0.4.22 <0.9.0;\r\n\r\ncontract ProductPackage {\r\n\r\n    // Struct definition\r\n    struct TProduct {\r\n        bytes32 productId;\r\n        bytes32 name;\r\n        uint256 price;\r\n        bytes32 description;\r\n    }\r\n\r\n    // Mapping to store products\r\n    mapping(string => TProduct) public products;\r\n\r\n    // Function to create a new product\r\n    function createProduct(string memory productId, bytes32 name, uint256 price, bytes32 description) public {\r\n        require(products[productId].productId == bytes32(0), \"Product already exists\");\r\n\r\n        TProduct memory newProduct = TProduct({\r\n            productId: bytes32(abi.encodePacked(productId)),\r\n            name: name,\r\n            price: price,\r\n            description: description\r\n        });\r\n\r\n        products[productId] = newProduct;\r\n    }\r\n}",
  "sourcePath": "C:\\Users\\dylan\\coding\\node\\supply-chain-tesis\\truffle\\contracts\\ProductPackage.sol",
  "compiler": {
    "name": "solc",
    "version": "0.8.13+commit.abaa5c0e.Emscripten.clang"
  },
  "schemaVersion": "3.4.16",
  "updatedAt": "2024-06-24T22:05:46.978Z",
  "networkType": "ethereum",
  "devdoc": {
    "kind": "dev",
    "methods": {},
    "version": 1
  },
  "userdoc": {
    "kind": "user",
    "methods": {},
    "version": 1
  }
}